:100000000C9446000C9465000C9465000C946500FB
:100010000C9465000C9465000C9465000C946500CC
:100020000C9465000C9465000C9465000C946500BC
:100030000C9465000C9424010C9465000C946500EC
:100040000C9465000C9465000C9465000C9465009C
:100050000C9465000C9465000C9465000C9465008C
:100060000C9465000C9465000C9465000C9465007C
:100070000C9465000C9465000C9465000C9465006C
:100080000C9465000C9465000C94650011241FBE4F
:10009000CFEFD0E4DEBFCDBF11E0A0E0B1E0E0ECF7
:1000A000F6E000E00BBF02C007900D92A231B1074D
:1000B000D9F711E0A2E1B1E001C01D92AB31B10767
:1000C000E1F70E94C9010C945E030C940000CF93E9
:1000D000C82F8A3019F48DE00E9467009091C0000B
:1000E00095FFFCCFC093C60080E090E0CF910895CB
:1000F000CF92DF92EF92FF926B017C01209117016A
:10010000309118014091190150911A010E94E501A6
:10011000882309F458C020E030E0A901C701B601E6
:100120000E94E501811106C0E1E9F0E0808188705C
:10013000808305C0E1E9F0E080818360808328E569
:1001400039E344E75FE3C701B6010E94E501882374
:100150003CF48FEF9FEF909399008093980027C015
:1001600020E034E244EF56E4C701B6010E94F702F2
:1001700018162CF4109299001092980018C020E0E4
:1001800030E040E053E4C701B6010E94FB029B014E
:10019000AC0160E074E284EF9AE40E94E9010E94FD
:1001A0005102615071097093990060939800109208
:1001B000950010929400C0921701D0921801E0921D
:1001C0001901F0921A01FF90EF90DF90CF900895FF
:1001D00080E4809390008BE08093910060E070E079
:1001E000CB010E9478000895109290001092910027
:1001F00008958BE0809381008DE790E090938900D3
:100200008093880082E080936F00109285001092A6
:1002100084008091000190910101A0910201B091B0
:1002200003018093120190931301A0931401B093E2
:1002300015018FB780688FBF0895109281000895CF
:1002400081E08093160108951F920F920FB60F92CE
:1002500011240BB60F922F933F934F935F936F939D
:100260007F938F939F93AF93BF93EF93FF9380916F
:10027000120190911301A0911401B0911501019701
:10028000A109B1098093120190931301A093140165
:10029000B0931501892B8A2B8B2B91F40E9420019E
:1002A0008091000190910101A0910201B0910301A0
:1002B0008093120190931301A0931401B093150140
:1002C000FF91EF91BF91AF919F918F917F916F912E
:1002D0005F914F913F912F910F900BBE0F900FBEEA
:1002E0000F901F9018956093000170930101809307
:1002F00002019093030160931201709313018093A4
:100300001401909315010895CF93DF9320B12095A8
:10031000217030B13095327040B140954470892BD6
:1003200019F4C1E0D0E002C0C0E0D0E0C130D10596
:1003300061F5222359F0311109C0411107C064EA67
:1003400070ED82E893E40E9478001FC021110BC079
:10035000332349F0411107C06BE774ED82E993E460
:100360000E94780012C021110BC0311109C0442332
:1003700039F064EA70ED84EA93E40E94780005C0E5
:1003800060E070E0CB010E947800CE01DF91CF9158
:10039000089511B88FEF82B984B915B864E670E09A
:1003A00080E090E00E9473010E94F9000E94E80042
:1003B00020E030E0C9010E9484019C019091160167
:1003C0009923E1F310921601F5CF9CD008F481E057
:1003D00008950CD0D2C0CAD040F0C1D030F021F482
:1003E0005F3F19F0B3C05111FCC0B6C0D7D098F32D
:1003F0009923C9F35523B1F3951B550BBB27AA27A6
:1004000062177307840738F09F5F5F4F220F331F17
:10041000441FAA1FA9F333D00E2E3AF0E0E830D0E3
:1004200091505040E695001CCAF729D0FE2F27D0E6
:10043000660F771F881FBB1F261737074807AB07B4
:10044000B0E809F0BB0B802DBF01FF2793585F4F29
:100450002AF09E3F510568F079C0C3C05F3FECF3BE
:10046000983EDCF3869577956795B795F7959F5FEE
:10047000C9F7880F911D9695879597F90895E1E042
:10048000660F771F881FBB1F621773078407BA07A1
:1004900020F0621B730B840BBA0BEE1F88F7E095FC
:1004A000089504D06894B1119CC008957FD088F05D
:1004B0009F5790F0B92F9927B751A0F0D1F0660F50
:1004C000771F881F991F1AF0BA95C9F712C0B1306B
:1004D00081F086D0B1E0089583C0672F782F8827F8
:1004E000B85F39F0B93FCCF3869577956795B395AA
:1004F000D9F73EF490958095709561957F4F8F4F19
:100500009F4F0895990F0008550FAA0BE0E8FEEFE2
:1005100016161706E807F907C0F012161306E407C7
:10052000F50798F0621B730B840B950B39F40A26C0
:1005300061F0232B242B252B21F408950A2609F49E
:10054000A140A6958FEF811D811D089597F99F67A2
:1005500080E870E060E008959FEF80EC089500244B
:100560000A941616170618060906089500240A9418
:1005700012161306140605060895092E0394000C9E
:1005800011F4882352F0BB0F40F4BF2B11F460FF2D
:1005900004C06F5F7F4F8F4F9F4F089557FD905856
:1005A000440F551F59F05F3F71F04795880F97FB37
:1005B000991F61F09F3F79F08795089512161306F1
:1005C0001406551FF2CF4695F1DF08C01616170620
:1005D0001806991FF1CF8695710561050894089555
:1005E000E894BB2766277727CB0197F908958ADF20
:1005F00008F48FEF08950BD0C0CFB1DF28F0B6DF3D
:1006000018F0952309F0A2CFA7CF1124EACFC6DFB7
:10061000A0F3959FD1F3950F50E0551F629FF00115
:10062000729FBB27F00DB11D639FAA27F00DB11D6E
:10063000AA1F649F6627B00DA11D661F829F2227F7
:10064000B00DA11D621F739FB00DA11D621F839F7E
:10065000A00D611D221F749F3327A00D611D231F54
:10066000849F600D211D822F762F6A2F11249F57A2
:1006700050408AF0E1F088234AF0EE0FFF1FBB1FC5
:10068000661F771F881F91505040A9F79E3F510564
:1006900070F05CCFA6CF5F3FECF3983EDCF386951D
:1006A00077956795B795F795E7959F5FC1F7FE2B0F
:1006B000880F911D9695879597F90895F894FFCF27
:1006C00001000000000000020000000067000000C0
:0206D000000028
:00000001FF
