:100000000C9446000C9465000C9465000C946500FB
:100010000C9465000C9465000C9465000C946500CC
:100020000C9465000C9465000C9465000C946500BC
:100030000C9465000C9424010C9465000C946500EC
:100040000C9465000C9465000C9465000C9465009C
:100050000C9465000C9465000C9465000C9465008C
:100060000C9465000C9465000C9465000C9465007C
:100070000C9465000C9465000C9465000C9465006C
:100080000C9465000C9465000C94650011241FBE4F
:10009000CFEFD0E4DEBFCDBF11E0A0E0B1E0E6EDF0
:1000A000F7E000E00BBF02C007900D92A232B1074B
:1000B000D9F711E0A2E2B1E001C01D92AC32B10764
:1000C000E1F70E9417020C94E9030C940000CF930F
:1000D000C82F8A3019F48DE00E9467009091C0000B
:1000E00095FFFCCFC093C60080E090E0CF910895CB
:1000F000CF92DF92EF92FF926B017C01209127015A
:10010000309128014091290150912A010E94330227
:10011000882309F458C020E030E0A901C701B601E6
:100120000E943302811106C0E1E9F0E0808188700D
:10013000808305C0E1E9F0E080818360808328E569
:1001400039E344E75FE3C701B6010E943302882325
:100150003CF48FEF9FEF909399008093980027C015
:1001600020E034E244EF56E4C701B6010E94820366
:1001700018162CF4109299001092980018C020E0E4
:1001800030E040E053E4C701B6010E9486039B01C2
:10019000AC0160E074E284EF9AE40E9437020E94AE
:1001A0009F026150710970939900609398001092BA
:1001B000950010929400C0922701D0922801E092FD
:1001C0002901F0922A01FF90EF90DF90CF900895DF
:1001D00080E4809390008BE08093910060E070E079
:1001E000CB010E9478000895109290001092910027
:1001F00008958BE0809381008DE790E090938900D3
:100200008093880082E080936F00109285001092A6
:1002100084008091100190911101A0911201B09180
:1002200013018093220190932301A0932401B093A2
:1002300025018FB780688FBF0895109281000895BF
:1002400081E08093260108951F920F920FB60F92BE
:1002500011240BB60F922F933F934F935F936F939D
:100260007F938F939F93AF93BF93EF93FF9380916F
:10027000220190912301A0912401B09125010197C1
:10028000A109B1098093220190932301A093240135
:10029000B0932501892B8A2B8B2B91F40E9420018E
:1002A0008091100190911101A0911201B091130160
:1002B0008093220190932301A0932401B093250100
:1002C000FF91EF91BF91AF919F918F917F916F912E
:1002D0005F914F913F912F910F900BBE0F900FBEEA
:1002E0000F901F90189560931001709311018093E7
:1002F0001201909313016093220170932301809364
:100300002401909325010895CF93DF93EC0180B1F0
:100310008095817090B19095927020B12095247055
:10032000C230D105E9F034F4209751F0C130D10545
:1003300051F025C0C330D10571F0249739F01FC0AA
:10034000C1E0D0E030C081111DC02DC08823E9F08C
:10035000C1E0D0E028C08823D9F0C1E0D0E023C0BC
:10036000811119C0992321F0211102C08823B1F015
:100370002223C9F0911117C0882399F014C0C0E05E
:10038000D0E011C0C2E0D0E00EC0C2E0D0E00BC0AF
:10039000C2E0D0E008C0C1E0D0E005C0C4E0D0E0D9
:1003A00002C0C3E0D0E0C230D10591F024F4C130E6
:1003B000D10541F038C0C330D10549F1C430D10571
:1003C000C9F031C060E070E0CB010E9478002BC022
:1003D000E0912B01F0E0EE0FFF1FE050FF4F608136
:1003E0007181882777FD8095982F0E94D2020E9404
:1003F000780019C080912B01873020F48F5F8093A3
:100400002B0111C0873079F480932B010CC08091AF
:100410002B01882321F0815080932B0104C081118E
:1004200002C010922B01CE01DF91CF91089511B837
:100430008FEF82B984B915B864E670E080E090E08F
:100440000E9473010E94F9000E94E80020E030E061
:10045000C9010E9484019C01909126019923E1F336
:1004600010922601F5CFD9D008F481E008950CD080
:100470000FC107D140F0FED030F021F45F3F19F0FA
:10048000F0C0511139C1F3C014D198F39923C9F3C5
:100490005523B1F3951B550BBB27AA27621773078A
:1004A000840738F09F5F5F4F220F331F441FAA1F3E
:1004B000A9F333D00E2E3AF0E0E830D091505040FE
:1004C000E695001CCAF729D0FE2F27D0660F771FAC
:1004D000881FBB1F261737074807AB07B0E809F08E
:1004E000BB0B802DBF01FF2793585F4F2AF09E3F23
:1004F000510568F0B6C000C15F3FECF3983EDCF3F5
:10050000869577956795B795F7959F5FC9F7880F9B
:10051000911D9695879597F90895E1E0660F771FED
:10052000881FBB1F621773078407BA0720F0621B7E
:10053000730B840BBA0BEE1F88F7E095089504D077
:100540006894B111D9C00895BCD088F09F5790F03D
:10055000B92F9927B751A0F0D1F0660F771F881FE8
:10056000991F1AF0BA95C9F712C0B13081F0C3D003
:10057000B1E00895C0C0672F782F8827B85F39F0A1
:10058000B93FCCF3869577956795B395D9F73EF447
:1005900090958095709561957F4F8F4F9F4F0895EF
:1005A000E89409C097FB3EF490958095709561950D
:1005B0007F4F8F4F9F4F9923A9F0F92F96E9BB27C3
:1005C0009395F695879577956795B795F111F8CF3F
:1005D000FAF4BB0F11F460FF1BC06F5F7F4F8F4FAA
:1005E0009F4F16C0882311F096E911C0772321F0A0
:1005F0009EE8872F762F05C0662371F096E8862F38
:1006000070E060E02AF09A95660F771F881FDAF78E
:10061000880F9695879597F90895990F0008550FBB
:10062000AA0BE0E8FEEF16161706E807F907C0F078
:1006300012161306E407F50798F0621B730B840B80
:10064000950B39F40A2661F0232B242B252B21F45A
:1006500008950A2609F4A140A6958FEF811D811DFA
:10066000089597F99F6780E870E060E008959FEF34
:1006700080EC089500240A94161617061806090639
:10068000089500240A941216130614060506089508
:10069000092E0394000C11F4882352F0BB0F40F490
:1006A000BF2B11F460FF04C06F5F7F4F8F4F9F4FD0
:1006B000089557FD9058440F551F59F05F3F71F052
:1006C0004795880F97FB991F61F09F3F79F08795B9
:1006D0000895121613061406551FF2CF4695F1DF42
:1006E00008C0161617061806991FF1CF86957105D2
:1006F000610508940895E894BB2766277727CB0106
:1007000097F908958ADF08F48FEF08950BD0C0CFD2
:10071000B1DF28F0B6DF18F0952309F0A2CFA7CFFC
:100720001124EACFC6DFA0F3959FD1F3950F50E0D7
:10073000551F629FF001729FBB27F00DB11D639F93
:10074000AA27F00DB11DAA1F649F6627B00DA11D39
:10075000661F829F2227B00DA11D621F739FB00DDF
:10076000A11D621F839FA00D611D221F749F33274F
:10077000A00D611D231F849F600D211D822F762FE8
:100780006A2F11249F5750408AF0E1F088234AF0E5
:10079000EE0FFF1FBB1F661F771F881F9150504031
:1007A000A9F79E3F510570F05CCFA6CF5F3FECF3F9
:1007B000983EDCF3869577956795B795F795E7951D
:1007C0009F5FC1F7FE2B880F911D9695879597F92E
:0607D0000895F894FFCF2C
:1007D6000501250149015D018801B801ED010B0202
:1007E6000100000000000002000000006700000099
:0207F600000001
:00000001FF
