:100000000C9446000C9465000C9465000C946500FB
:100010000C9465000C9465000C9465000C946500CC
:100020000C9465000C9465000C9465000C946500BC
:100030000C9465000C9465000C9465000C946500AC
:100040000C9465000C9465000C9465000C9465009C
:100050000C9465000C9465000C9465000C9465008C
:100060000C9465000C9465000C9465000C9465007C
:100070000C9465000C9465000C9465000C9465006C
:100080000C9465000C9465000C94650011241FBE4F
:10009000CFEFD0E4DEBFCDBF11E0A0E0B1E0E6E3FA
:1000A000F7E000E00BBF02C007900D92AE33B1073E
:1000B000D9F711E0AEE3B1E001C01D92A734B1075A
:1000C000E1F70E94C7010C9499030C940000CF93B0
:1000D000C82F8A3019F48DE00E9467009091C0000B
:1000E00095FFFCCFC093C60080E090E0CF910895CB
:1000F000CF92DF92EF92FF926B017C01209143013E
:100100003091440140914501509146010E94E30124
:10011000882309F458C020E030E0A901C701B601E6
:100120000E94E301811106C0E1E9F0E0808188705E
:10013000808305C0E1E9F0E080818360808328E569
:1001400039E344E75FE3C701B6010E94E301882376
:100150003CF48FEF9FEF909399008093980027C015
:1001600020E034E244EF56E4C701B6010E943203B6
:1001700018162CF4109299001092980018C020E0E4
:1001800030E040E053E4C701B6010E9436039B0112
:10019000AC0160E074E284EF9AE40E94E7010E94FF
:1001A0004F0261507109709399006093980010920A
:1001B000950010929400C0924301D0924401E092C5
:1001C0004501F0924601FF90EF90DF90CF900895A7
:1001D00080E4809390008BE08093910060E070E079
:1001E000CB010E9478000895109290001092910027
:1001F00008958BE0809381008DE790E090938900D3
:100200008093880082E080936F00109285001092A6
:1002100084008091000190910101A0910201B091B0
:10022000030180933E0190933F01A0934001B0935E
:1002300041018FB780688FBF0895109281000895A3
:1002400081E080934201089580913E0190913F01A9
:10025000A0914001B09141010197A109B10980939A
:100260003E0190933F01A0934001B0934101892B3F
:100270008A2B8B2B91F40E94200180910001909198
:100280000101A0910201B091030180933E0190937E
:100290003F01A0934001B093410108956093000194
:1002A00070930101809302019093030160933E01DA
:1002B00070933F01809340019093410108950F9303
:1002C0001F93CF93DF93CDB7DEB7AC970FB6F894FB
:1002D000DEBF0FBECDBF8C0180B18095817090E1F3
:1002E000E2E1F1E0DE01119601900D929A95E1F7BD
:1002F0006D817E819CE1E2E2F1E0DE0151960190A8
:100300000D929A95E1F70130110571F01CF4012B63
:1003100041F012C002301105A1F00330110539F08F
:100320000BC001E010E00DC0811109C00AC08111AD
:1003300008C001E010E005C000E010E002C002E0EB
:1003400010E00130110521F00230110539F013C021
:1003500060E070E0CB010E9478000DC089899A8925
:100360001816190644F4882777FD8095982F0E9467
:1003700082020E947800C801AC960FB6F894DEBFE6
:100380000FBECDBFDF91CF911F910F91089511B88E
:100390008FEF82B984B915B864E670E080E090E030
:1003A0000E944E010E94F9000E94E80020E030E027
:1003B000C9010E945F019C01909142019923E1F3E0
:1003C00010924201F5CFD9D008F481E008950CD005
:1003D0000FC107D140F0FED030F021F45F3F19F09B
:1003E000F0C0511139C1F3C014D198F39923C9F366
:1003F0005523B1F3951B550BBB27AA27621773072B
:10040000840738F09F5F5F4F220F331F441FAA1FDE
:10041000A9F333D00E2E3AF0E0E830D0915050409E
:10042000E695001CCAF729D0FE2F27D0660F771F4C
:10043000881FBB1F261737074807AB07B0E809F02E
:10044000BB0B802DBF01FF2793585F4F2AF09E3FC3
:10045000510568F0B6C000C15F3FECF3983EDCF395
:10046000869577956795B795F7959F5FC9F7880F3C
:10047000911D9695879597F90895E1E0660F771F8E
:10048000881FBB1F621773078407BA0720F0621B1F
:10049000730B840BBA0BEE1F88F7E095089504D018
:1004A0006894B111D9C00895BCD088F09F5790F0DE
:1004B000B92F9927B751A0F0D1F0660F771F881F89
:1004C000991F1AF0BA95C9F712C0B13081F0C3D0A4
:1004D000B1E00895C0C0672F782F8827B85F39F042
:1004E000B93FCCF3869577956795B395D9F73EF4E8
:1004F00090958095709561957F4F8F4F9F4F089590
:10050000E89409C097FB3EF49095809570956195AD
:100510007F4F8F4F9F4F9923A9F0F92F96E9BB2763
:100520009395F695879577956795B795F111F8CFDF
:10053000FAF4BB0F11F460FF1BC06F5F7F4F8F4F4A
:100540009F4F16C0882311F096E911C0772321F040
:100550009EE8872F762F05C0662371F096E8862FD8
:1005600070E060E02AF09A95660F771F881FDAF72F
:10057000880F9695879597F90895990F0008550F5C
:10058000AA0BE0E8FEEF16161706E807F907C0F019
:1005900012161306E407F50798F0621B730B840B21
:1005A000950B39F40A2661F0232B242B252B21F4FB
:1005B00008950A2609F4A140A6958FEF811D811D9B
:1005C000089597F99F6780E870E060E008959FEFD5
:1005D00080EC089500240A941616170618060906DA
:1005E000089500240A9412161306140605060895A9
:1005F000092E0394000C11F4882352F0BB0F40F431
:10060000BF2B11F460FF04C06F5F7F4F8F4F9F4F70
:10061000089557FD9058440F551F59F05F3F71F0F2
:100620004795880F97FB991F61F09F3F79F0879559
:100630000895121613061406551FF2CF4695F1DFE2
:1006400008C0161617061806991FF1CF8695710572
:10065000610508940895E894BB2766277727CB01A6
:1006600097F908958ADF08F48FEF08950BD0C0CF73
:10067000B1DF28F0B6DF18F0952309F0A2CFA7CF9D
:100680001124EACFC6DFA0F3959FD1F3950F50E078
:10069000551F629FF001729FBB27F00DB11D639F34
:1006A000AA27F00DB11DAA1F649F6627B00DA11DDA
:1006B000661F829F2227B00DA11D621F739FB00D80
:1006C000A11D621F839FA00D611D221F749F3327F0
:1006D000A00D611D231F849F600D211D822F762F89
:1006E0006A2F11249F5750408AF0E1F088234AF086
:1006F000EE0FFF1FBB1F661F771F881F91505040D2
:10070000A9F79E3F510570F05CCFA6CF5F3FECF399
:10071000983EDCF3869577956795B795F795E795BD
:100720009F5FC1F7FE2B880F911D9695879597F9CE
:060730000895F894FFCFCC
:100736000100000000000002000000006700000049
:1007460000000501250149015D018801B801ED019F
:100756000B0204000400040004000400040004006A
:0E076600040004000400040004000400040069
:00000001FF
